:020000040800F2
:1000000000000220BD0E00080D0F00080D0F0008B3
:10001000C10D0008C90D0008D10D00080000000046
:100020000000000000000000000000000D0F0008AC
:100030000D0F000800000000810B00084D0A0008A9
:100040000D0F00080D0F00080D0F00080D0F000820
:100050000D0F00080D0F00080D0F00080D0F000810
:100060000D0F00080D0F00080D0F00080D0F000800
:100070000D0F00080D0F00080D0F00080D0F0008F0
:100080000D0F00080D0F00080D0F00080D0F0008E0
:100090000D0F00080D0F00080D0F00080D0F0008D0
:1000A0000D0F00080D0F00080D0F00080D0F0008C0
:1000B0000D0F00080D0F00080D0F00080D0F0008B0
:1000C0000D0F00080D0F00080D0F00080D0F0008A0
:1000D0000D0F00080D0F00080D0F00080D0F000890
:1000E0000D0F00080D0F00080D0F00080D0F000880
:1000F0000D0F00080D0F00080D0F00080D0F000870
:100100000D0F00080D0F00080D0F00080D0F00085F
:100110000D0F00080D0F00080D0F00080D0F00084F
:100120000D0F00080D0F00080D0F00080D0F00083F
:100130000D0F000800000000000000000D0F000877
:100140000D0F00080D0F00080D0F00080D0F00081F
:100150000D0F00080D0F00080D0F00080D0F00080F
:100160000D0F00080D0F00080D0F00080D0F0008FF
:100170000D0F00080D0F00080D0F00080000000013
:10018000000000000000000000000000000000006F
:100190000D0F000800000000000000000D0F000817
:1001A0000000000000000000000000000D0F00082B
:1001B0000D0F00080D0F00080D0F00080D0F0008AF
:0401C0000D0F000817
:1001C40010B5054C237833B9044B13B10448AFF38D
:1001D40000800123237010BD2000002000000000D7
:1001E400580F000808B5034B1BB103490348AFF38C
:1001F400008008BD0000000024000020580F000803
:1002040080B485B000AF78600123FB737B68002B5A
:1002140002D10123FB73E4E37B681B78072B03D82B
:100224007B685B780F2B02D90123FB73D9E37B68CE
:100234001B78042B00F2C88301A252F823F000BFFC
:1002440059020008D903000859050008D906000816
:10025400590800085D4B1B6B5C4A43F001031363B0
:100264005B4B1B687A6852785200032101FA02F250
:10027400D2431146564A0B401360554B1B687A68AB
:10028400927811467A685278520001FA02F21146C5
:100294004F4A0B4313607B689B78032B52D07B68D7
:1002A4009B78002B33D04A4B5B687A6852781146AE
:1002B40001228A40D2431146454A0B405360444BC5
:1002C4005B687A68127911467A68527801FA02F208
:1002D40011463F4A0B4353603D4B9B687A68527802
:1002E4005200032101FA02F2D2431146384A0B406C
:1002F4009360374B9B687A68527911467A685278D2
:10030400520001FA02F21146314A0B439360304B1A
:10031400DB687A6852785200032101FA02F2D24370
:1003240011462B4A0B40D360294BDB687A68D2789C
:1003340011467A685278520001FA02F21146244AB0
:100344000B43D3607B689B78022B40F03F837B6830
:100354005B78072B1BD81E4B1B6A7A685278920075
:100364000F2101FA02F2D2431146194A0B401362DB
:10037400174B1B6A7A68927911467A685278920010
:1003840001FA02F21146124A0B4313621EE3104BA8
:100394005B6A7A685278083A92000F2101FA02F2F5
:1003A400D24311460A4A0B405362094B5B6A7A688E
:1003B400927911467A685278083A920001FA02F268
:1003C4001146034A0B43536200E300BF0038024066
:1003D400000002405D4B1B6B5C4A43F00203136355
:1003E4005B4B1B687A6852785200032101FA02F2CF
:1003F400D2431146564A0B401360554B1B687A682A
:10040400927811467A685278520001FA02F2114643
:100414004F4A0B4313607B689B78032B52D07B6855
:100424009B78002B33D04A4B5B687A68527811462C
:1004340001228A40D2431146454A0B405360444B43
:100444005B687A68127911467A68527801FA02F286
:1004540011463F4A0B4353603D4B9B687A68527880
:100464005200032101FA02F2D2431146384A0B40EA
:100474009360374B9B687A68527911467A68527850
:10048400520001FA02F21146314A0B439360304B99
:10049400DB687A6852785200032101FA02F2D243EF
:1004A40011462B4A0B40D360294BDB687A68D2781B
:1004B40011467A685278520001FA02F21146244A2F
:1004C4000B43D3607B689B78022B40F081827B686E
:1004D4005B78072B1BD81E4B1B6A7A6852789200F4
:1004E4000F2101FA02F2D2431146194A0B4013625A
:1004F400174B1B6A7A68927911467A68527892008F
:1005040001FA02F21146124A0B43136260E2104BE5
:100514005B6A7A685278083A92000F2101FA02F273
:10052400D24311460A4A0B405362094B5B6A7A680C
:10053400927911467A685278083A920001FA02F2E6
:100544001146034A0B43536242E200BF00380240A3
:10055400000402405D4B1B6B5C4A43F004031363CD
:100564005B4B1B687A6852785200032101FA02F24D
:10057400D2431146564A0B401360554B1B687A68A8
:10058400927811467A685278520001FA02F21146C2
:100594004F4A0B4313607B689B78032B52D07B68D4
:1005A4009B78002B33D04A4B5B687A6852781146AB
:1005B40001228A40D2431146454A0B405360444BC2
:1005C4005B687A68127911467A68527801FA02F205
:1005D40011463F4A0B4353603D4B9B687A685278FF
:1005E4005200032101FA02F2D2431146384A0B4069
:1005F4009360374B9B687A68527911467A685278CF
:10060400520001FA02F21146314A0B439360304B17
:10061400DB687A6852785200032101FA02F2D2436D
:1006240011462B4A0B40D360294BDB687A68D27899
:1006340011467A685278520001FA02F21146244AAD
:100644000B43D3607B689B78022B40F0C3817B68AB
:100654005B78072B1BD81E4B1B6A7A685278920072
:100664000F2101FA02F2D2431146194A0B401362D8
:10067400174B1B6A7A68927911467A68527892000D
:1006840001FA02F21146124A0B431362A2E1104B23
:100694005B6A7A685278083A92000F2101FA02F2F2
:1006A400D24311460A4A0B405362094B5B6A7A688B
:1006B400927911467A685278083A920001FA02F265
:1006C4001146034A0B43536284E100BF00380240E1
:1006D400000802405D4B1B6B5C4A43F00803136344
:1006E4005B4B1B687A6852785200032101FA02F2CC
:1006F400D2431146564A0B401360554B1B687A6827
:10070400927811467A685278520001FA02F2114640
:100714004F4A0B4313607B689B78032B52D07B6852
:100724009B78002B33D04A4B5B687A685278114629
:1007340001228A40D2431146454A0B405360444B40
:100744005B687A68127911467A68527801FA02F283
:1007540011463F4A0B4353603D4B9B687A6852787D
:100764005200032101FA02F2D2431146384A0B40E7
:100774009360374B9B687A68527911467A6852784D
:10078400520001FA02F21146314A0B439360304B96
:10079400DB687A6852785200032101FA02F2D243EC
:1007A40011462B4A0B40D360294BDB687A68D27818
:1007B40011467A685278520001FA02F21146244A2C
:1007C4000B43D3607B689B78022B40F005817B68E8
:1007D4005B78072B1BD81E4B1B6A7A6852789200F1
:1007E4000F2101FA02F2D2431146194A0B40136257
:1007F400174B1B6A7A68927911467A68527892008C
:1008040001FA02F21146124A0B431362E4E0104B60
:100814005B6A7A685278083A92000F2101FA02F270
:10082400D24311460A4A0B405362094B5B6A7A6809
:10083400927911467A685278083A920001FA02F2E3
:100844001146034A0B435362C6E000BF003802401E
:10085400000C0240664B1B6B654A43F010031363A4
:10086400644B1B687A6852785200032101FA02F241
:10087400D24311465F4A0B4013605E4B1B687A6893
:10088400927811467A685278520001FA02F21146BF
:10089400584A0B4313607B689B78032B52D07B68C8
:1008A4009B78002B33D0534B5B687A68527811469F
:1008B40001228A40D24311464E4A0B4053604D4BAD
:1008C4005B687A68127911467A68527801FA02F202
:1008D4001146484A0B435360464B9B687A685278EA
:1008E4005200032101FA02F2D2431146414A0B405D
:1008F4009360404B9B687A68527911467A685278C3
:10090400520001FA02F211463A4A0B439360394B02
:10091400DB687A6852785200032101FA02F2D2436A
:100924001146344A0B40D360324BDB687A68D27884
:1009340011467A685278520001FA02F211462D4AA1
:100944000B43D3607B689B78022B47D17B685B7831
:10095400072B1BD8274B1B6A7A68527892000F2109
:1009640001FA02F2D2431146224A0B401362214B90
:100974001B6A7A68927911467A685278920001FA71
:1009840002F211461B4A0B43136227E0194B5B6AC0
:100994007A685278083A92000F2101FA02F2D2439F
:1009A4001146144A0B405362124B5B6A7A6892797F
:1009B40011467A685278083A920001FA02F2114616
:1009C4000C4A0B43536209E000BF08E000BF06E095
:1009D40000BF04E000BF02E000BF00E000BF00234E
:1009E400FB73FB7B18461437BD4680BC704700BFC1
:1009F400003802400010024080B483B000AF0123ED
:100A0400FB71104B1B680F4A23F0040313600D4B5A
:100A140040F2CF725A600B4B00229A6062B6094BC7
:100A24001B68084A43F001031360064B1B68054A20
:100A340043F002031360FB7918460C37BD4680BCB3
:100A4400704700BF10E000E080B500AF0D4B1B689D
:100A540001330C4A13600C4B1B7883F00203DAB2A7
:100A6400094B1A70094B5B69084A83F020035361F0
:100A740000F048F8064B5B68054A43F08053536026
:100A840000BF80BD3C000020400000200000024068
:100A940000ED00E080B483B000AF7860154B1B78A4
:100AA400002B21D04FF0010080F31088124B1A68FC
:100AB400104B1B7818467B681A44104903010B44F9
:100AC40004331A600B4B1B780C4A1B011344083384
:100AD40001221A700A4B5B68094A43F08053536041
:100AE4004FF0000080F3108800BF0C37BD4680BC77
:100AF400704700BF1F0000203C0000204800002079
:100B040000ED00E080B483B000AF0023FB711BE074
:100B1400FB79124A1B01134408331B78012B10D1B3
:100B2400FB790E4A1B01134404331A680C4B1B68EF
:100B34009A4206D8FB79094A1B0113440833002260
:100B44001A70FB790133FB71FB79032BE0D900BFE9
:100B540000BF0C37BD4680BC704700BF4800002072
:100B64003C00002080B400AF034B1B6883F00203F9
:100B7400014A1360F8E700BF44000020EFF3098046
:100B840020E9F00F00B500F05FF800F00BF800F07A
:100B94004BF85DF804EBB0E8F00F80F30988704778
:100BA40000BF000080B483B000AF01237B601CE071
:100BB400194B1B780133DAB2174B1A70164B1B789A
:100BC40003F00303DAB2144B1A70134B1B78134A65
:100BD4001B01134408331B78002B03D10E4B1B78E5
:100BE400002B06D17B6801337B607B68032BDFD944
:100BF40000E000BF084B1B78084A1B01134408336C
:100C04001B78012B02D1044B00221A7000BF0C3751
:100C1400BD4680BC704700BF1F0000204800002074
:100C240080F30888704700BF80B400AF044B1B7882
:100C3400044A1B0113441B681846BD4680BC704718
:100C44001F0000204800002080B483B000AF78600B
:100C5400054B1B78054A1B0113447A681A6000BFD0
:100C64000C37BD4680BC70471F00002048000020A0
:100C740000B5FFF7D9FF80F309885DF804EB4FF066
:100C8400020080F31488704700BF000080B485B070
:100C940000AF0023BB600023FB71314B314A1A6063
:100CA4002F4B314A1A612E4B304A1A622C4B304A70
:100CB4001A632B4B2F4ADA60294B2F4ADA61284BEF
:100CC4002E4ADA62264B2E4ADA630023BB603EE0EA
:100CD400234ABB681B011344083300221A70204ABC
:100CE400BB681B0113441B68FB60FB68043BFB608F
:100CF400FB684FF080721A60FB68043BFB60184A83
:100D0400BB681B0113440C331B681A46FB681A604A
:100D1400FB68043BFB60FB686FF002021A6000236F
:100D2400FB7108E0FB68043BFB60FB6800221A606F
:100D3400FB790133FB71FB790C2BF3D9FA68084971
:100D4400BB681B010B441A60BB680133BB60BB6802
:100D5400032BBDD900BF00BF1437BD4680BC70470C
:100D6400480000200000022000FC012000F80120BF
:100D740000F40120690B0008290E00085D0E00082C
:100D8400890E000880B400AF0B4B5B6A0A4A43F437
:100D940080335362084B5B6A074A43F4003353625F
:100DA400054B5B6A044A43F48023536200231846CC
:100DB400BD4680BC704700BF00ED00E080B400AFCA
:100DC40000BFFDE780B400AF00BFFDE780B400AF13
:100DD40000BFFDE780B500AF0D48FFF711FA0D48DD
:100DE400FFF70EFA0C48FFF70BFA0C48FFF708FA66
:100DF400FFF7C8FFFFF700FE0948FFF711FFFFF7F1
:100E040045FFFFF735FF00F00DF800BFFDE700BF19
:100E1400000000200800002010000020180000201E
:100E240000F0012080B500AF094B1B78DBB283F0E2
:100E34000203DAB2064B1A704FF41670FFF72AFE5B
:100E4400044B5B69034A83F04003536100BFEBE743
:100E5400880000200000024080B400AF074B1B78DC
:100E6400DBB283F00203DAB2044B1A70044B5B6901
:100E7400034A83F08003536100BFEFE78900002039
:100E84000000024080B500AF094B1B78DBB283F051
:100E94000203DAB2064B1A704FF49670FFF7FAFDAC
:100EA400044B5B69034A83F04003536100BFEBE7E3
:100EB4008A000020000402400D488546AFF30080FC
:100EC4000C480D490D4A002302E0D458C4500433A1
:100ED400C4188C42F9D30A4A0A4C002301E0136077
:100EE4000432A242FBD300F011F8FFF773FFFEE7D0
:100EF400000002200000002020000020780F0008DD
:100F0400200000208C000020FEE7000070B50D4D8D
:100F14000D4C641BA4100026A64209D10B4D0C4CA9
:100F240000F018F8641BA4100026A64205D170BD79
:100F340055F8043B98470136EEE755F8043B9847CB
:100F44000136F2E7700F0008700F0008700F0008F8
:100F5400740F0008F8B500BFF8BC08BC9E46704783
:0C0F6400F8B500BFF8BC08BC9E46704702
:040F7000E90100088B
:040F7400C5010008AB
:100F7800000501000000000000060100000000005C
:100F88000007010000000000010601000000000148
:0400000508000EBD24
:00000001FF
