:020000040800F2
:1000000000000220C50D0008150E0008150E00089E
:10001000010D0008090D0008110D00080000000086
:10002000000000000000000000000000150E0008A5
:10003000150E000800000000150E0008450B000812
:10004000150E0008150E0008150E0008150E000804
:10005000150E0008150E0008150E0008150E0008F4
:10006000150E0008150E0008150E0008150E0008E4
:10007000150E0008150E0008150E0008150E0008D4
:10008000150E0008150E0008150E0008150E0008C4
:10009000150E0008150E0008150E0008150E0008B4
:1000A000150E0008150E0008150E0008150E0008A4
:1000B000150E0008150E0008150E0008150E000894
:1000C000150E0008150E0008150E0008150E000884
:1000D000150E0008150E0008150E0008150E000874
:1000E000150E0008150E0008150E0008150E000864
:1000F000150E0008150E0008150E0008150E000854
:10010000150E0008150E0008150E0008150E000843
:10011000150E0008150E0008150E0008150E000833
:10012000150E0008150E0008150E0008150E000823
:10013000150E00080000000000000000150E000869
:10014000150E0008150E0008150E0008150E000803
:10015000150E0008150E0008150E0008150E0008F3
:10016000150E0008150E0008150E0008150E0008E3
:10017000150E0008150E0008150E000800000000FE
:10018000000000000000000000000000000000006F
:10019000150E00080000000000000000150E000809
:1001A000000000000000000000000000150E000824
:1001B000150E0008150E0008150E0008150E000893
:0401C000150E000810
:1001C40010B5054C237833B9044B13B10448AFF38D
:1001D40000800123237010BD1800002000000000DF
:1001E400600E000808B5034B1BB103490348AFF385
:1001F400008008BD000000001C000020600E000804
:1002040080B485B000AF78600123FB737B68002B5A
:1002140002D10123FB73E4E37B681B78072B03D82B
:100224007B685B780F2B02D90123FB73D9E37B68CE
:100234001B78042B00F2C88301A252F823F000BFFC
:1002440059020008D903000859050008D906000816
:10025400590800085D4B1B6B5C4A43F001031363B0
:100264005B4B1B687A6852785200032101FA02F250
:10027400D2431146564A0B401360554B1B687A68AB
:10028400927811467A685278520001FA02F21146C5
:100294004F4A0B4313607B689B78032B52D07B68D7
:1002A4009B78002B33D04A4B5B687A6852781146AE
:1002B40001228A40D2431146454A0B405360444BC5
:1002C4005B687A68127911467A68527801FA02F208
:1002D40011463F4A0B4353603D4B9B687A68527802
:1002E4005200032101FA02F2D2431146384A0B406C
:1002F4009360374B9B687A68527911467A685278D2
:10030400520001FA02F21146314A0B439360304B1A
:10031400DB687A6852785200032101FA02F2D24370
:1003240011462B4A0B40D360294BDB687A68D2789C
:1003340011467A685278520001FA02F21146244AB0
:100344000B43D3607B689B78022B40F03F837B6830
:100354005B78072B1BD81E4B1B6A7A685278920075
:100364000F2101FA02F2D2431146194A0B401362DB
:10037400174B1B6A7A68927911467A685278920010
:1003840001FA02F21146124A0B4313621EE3104BA8
:100394005B6A7A685278083A92000F2101FA02F2F5
:1003A400D24311460A4A0B405362094B5B6A7A688E
:1003B400927911467A685278083A920001FA02F268
:1003C4001146034A0B43536200E300BF0038024066
:1003D400000002405D4B1B6B5C4A43F00203136355
:1003E4005B4B1B687A6852785200032101FA02F2CF
:1003F400D2431146564A0B401360554B1B687A682A
:10040400927811467A685278520001FA02F2114643
:100414004F4A0B4313607B689B78032B52D07B6855
:100424009B78002B33D04A4B5B687A68527811462C
:1004340001228A40D2431146454A0B405360444B43
:100444005B687A68127911467A68527801FA02F286
:1004540011463F4A0B4353603D4B9B687A68527880
:100464005200032101FA02F2D2431146384A0B40EA
:100474009360374B9B687A68527911467A68527850
:10048400520001FA02F21146314A0B439360304B99
:10049400DB687A6852785200032101FA02F2D243EF
:1004A40011462B4A0B40D360294BDB687A68D2781B
:1004B40011467A685278520001FA02F21146244A2F
:1004C4000B43D3607B689B78022B40F081827B686E
:1004D4005B78072B1BD81E4B1B6A7A6852789200F4
:1004E4000F2101FA02F2D2431146194A0B4013625A
:1004F400174B1B6A7A68927911467A68527892008F
:1005040001FA02F21146124A0B43136260E2104BE5
:100514005B6A7A685278083A92000F2101FA02F273
:10052400D24311460A4A0B405362094B5B6A7A680C
:10053400927911467A685278083A920001FA02F2E6
:100544001146034A0B43536242E200BF00380240A3
:10055400000402405D4B1B6B5C4A43F004031363CD
:100564005B4B1B687A6852785200032101FA02F24D
:10057400D2431146564A0B401360554B1B687A68A8
:10058400927811467A685278520001FA02F21146C2
:100594004F4A0B4313607B689B78032B52D07B68D4
:1005A4009B78002B33D04A4B5B687A6852781146AB
:1005B40001228A40D2431146454A0B405360444BC2
:1005C4005B687A68127911467A68527801FA02F205
:1005D40011463F4A0B4353603D4B9B687A685278FF
:1005E4005200032101FA02F2D2431146384A0B4069
:1005F4009360374B9B687A68527911467A685278CF
:10060400520001FA02F21146314A0B439360304B17
:10061400DB687A6852785200032101FA02F2D2436D
:1006240011462B4A0B40D360294BDB687A68D27899
:1006340011467A685278520001FA02F21146244AAD
:100644000B43D3607B689B78022B40F0C3817B68AB
:100654005B78072B1BD81E4B1B6A7A685278920072
:100664000F2101FA02F2D2431146194A0B401362D8
:10067400174B1B6A7A68927911467A68527892000D
:1006840001FA02F21146124A0B431362A2E1104B23
:100694005B6A7A685278083A92000F2101FA02F2F2
:1006A400D24311460A4A0B405362094B5B6A7A688B
:1006B400927911467A685278083A920001FA02F265
:1006C4001146034A0B43536284E100BF00380240E1
:1006D400000802405D4B1B6B5C4A43F00803136344
:1006E4005B4B1B687A6852785200032101FA02F2CC
:1006F400D2431146564A0B401360554B1B687A6827
:10070400927811467A685278520001FA02F2114640
:100714004F4A0B4313607B689B78032B52D07B6852
:100724009B78002B33D04A4B5B687A685278114629
:1007340001228A40D2431146454A0B405360444B40
:100744005B687A68127911467A68527801FA02F283
:1007540011463F4A0B4353603D4B9B687A6852787D
:100764005200032101FA02F2D2431146384A0B40E7
:100774009360374B9B687A68527911467A6852784D
:10078400520001FA02F21146314A0B439360304B96
:10079400DB687A6852785200032101FA02F2D243EC
:1007A40011462B4A0B40D360294BDB687A68D27818
:1007B40011467A685278520001FA02F21146244A2C
:1007C4000B43D3607B689B78022B40F005817B68E8
:1007D4005B78072B1BD81E4B1B6A7A6852789200F1
:1007E4000F2101FA02F2D2431146194A0B40136257
:1007F400174B1B6A7A68927911467A68527892008C
:1008040001FA02F21146124A0B431362E4E0104B60
:100814005B6A7A685278083A92000F2101FA02F270
:10082400D24311460A4A0B405362094B5B6A7A6809
:10083400927911467A685278083A920001FA02F2E3
:100844001146034A0B435362C6E000BF003802401E
:10085400000C0240664B1B6B654A43F010031363A4
:10086400644B1B687A6852785200032101FA02F241
:10087400D24311465F4A0B4013605E4B1B687A6893
:10088400927811467A685278520001FA02F21146BF
:10089400584A0B4313607B689B78032B52D07B68C8
:1008A4009B78002B33D0534B5B687A68527811469F
:1008B40001228A40D24311464E4A0B4053604D4BAD
:1008C4005B687A68127911467A68527801FA02F202
:1008D4001146484A0B435360464B9B687A685278EA
:1008E4005200032101FA02F2D2431146414A0B405D
:1008F4009360404B9B687A68527911467A685278C3
:10090400520001FA02F211463A4A0B439360394B02
:10091400DB687A6852785200032101FA02F2D2436A
:100924001146344A0B40D360324BDB687A68D27884
:1009340011467A685278520001FA02F211462D4AA1
:100944000B43D3607B689B78022B47D17B685B7831
:10095400072B1BD8274B1B6A7A68527892000F2109
:1009640001FA02F2D2431146224A0B401362214B90
:100974001B6A7A68927911467A685278920001FA71
:1009840002F211461B4A0B43136227E0194B5B6AC0
:100994007A685278083A92000F2101FA02F2D2439F
:1009A4001146144A0B405362124B5B6A7A6892797F
:1009B40011467A685278083A920001FA02F2114616
:1009C4000C4A0B43536209E000BF08E000BF06E095
:1009D40000BF04E000BF02E000BF00E000BF00234E
:1009E400FB73FB7B18461437BD4680BC704700BFC1
:1009F400003802400010024080B485B000AF0346C6
:100A0400FB710B46BB7113467B710123FB73FB79AE
:100A1400072B02D8BB790F2B02D90123FB7351E0BA
:100A2400FB79072B2AD801A252F823F0510A0008B7
:100A3400570A00085D0A0008630A0008690A0008EA
:100A44006F0A0008750A00087B0A0008204BBB6087
:100A540017E0204BBB6014E01F4BBB6011E01F4B41
:100A6400BB600EE01E4BBB600BE01E4BBB6008E09E
:100A74001D4BBB6005E01D4BBB6002E00023BB6067
:100A840000BFBB68002B1BD07B79012B07D1BB793E
:100A9400012202FA03F31A46BB689A610DE07B79DE
:100AA400002B08D1BB791033012202FA03F31A4652
:100AB400BB689A6101E00123FB730023FB7301E02F
:100AC4000123FB73FB7B18461437BD4680BC70477B
:100AD400000002400004024000080240000C0240F2
:100AE400001002400014024000180240001C0240A2
:100AF40080B483B000AF0123FB71104B1B680F4A15
:100B040023F0040313600D4B40F2CF725A600B4B79
:100B140000229A6062B6094B1B68084A43F001033D
:100B24001360064B1B68054A43F002031360FB790C
:100B340018460C37BD4680BC704700BF10E000E08B
:100B44000F4B1B6801330E4A13600E4B1B7883F066
:100B54000203DAB20B4B1A70EFF3098020E9F00FAD
:100B640000B500F0B7F800F00FF800F027F85DF8D2
:100B740004EBB0E8F00F80F30988704700BF00BFB2
:100B8400340000203900002080B400AF084B1B78EB
:100B94000133DAB2064B1A70054B1B7803F00303DA
:100BA400DAB2034B1A7000BFBD4680BC704700BF69
:100BB4003800002080F30888704700BF80B400AF7D
:100BC400044B1B781A46044B53F822301846BD4692
:100BD40080BC7047380000200800002000B5FFF7F3
:100BE400EDFF80F309885DF804EB4FF0020080F319
:100BF4001488704700BF000090B488B000AF002391
:100C0400BB610023FB75234B3C1D0FCB84E80F0015
:100C14000023BB6135E0204ABB6952F82330FB61F5
:100C2400FB69043BFB61FB694FF080721A60FB694E
:100C3400043BFB61BB699B0020333B4453F81C3CE1
:100C44001A46FB691A60FB69043BFB61FB696FF0A0
:100C540002021A600023FB7508E0FB69043BFB6198
:100C6400FB6900221A60FB7D0133FB75FB7D0C2BB5
:100C7400F3D9FA690849BB6941F82320BB690133F8
:100C8400BB61BB69032BC6D900BF00BF2037BD467B
:100C940090BC7047780E00080800002080B400AFB4
:100CA4000B4B5B6A0A4A43F480335362084B5B6A1A
:100CB400074A43F400335362054B5B6A044A43F426
:100CC4008023536200231846BD4680BC704700BF92
:100CD40000ED00E080B483B000AF7860054B1B7872
:100CE4001946054A7B6842F8213000BF0C37BD46DF
:100CF40080BC7047380000200800002080B400AF9A
:100D040000BFFDE780B400AF00BFFDE780B400AFD3
:100D140000BFFDE780B500AF0B48FFF771FA012271
:100D240005210020FFF768FEFFF7B8FFFFF7E0FE9C
:100D34000648FFF73FFFFFF75FFFFFF74FFF00F0A5
:100D440007F800BFFDE700BF0000002000F001200D
:100D540080B400AF044B1B78DBB283F00203DAB239
:100D6400014B1A70F6E700BF3A00002080B400AFD0
:100D7400044B1B78DBB283F00203DAB2014B1A7026
:100D8400F6E700BF3B00002080B400AF044B1B78A3
:100D9400DBB283F00203DAB2014B1A70F6E700BF4C
:100DA4003C00002080B400AF044B1B78DBB283F01E
:100DB4000203DAB2014B1A70F6E700BF3D000020CF
:100DC4000D488546AFF300800C480D490D4A0023B9
:100DD40002E0D458C4500433C4188C42F9D30A4AEC
:100DE4000A4C002301E013600432A242FBD300F05A
:100DF40011F8FFF78FFFFEE700000220000000203B
:100E040018000020900E0008180000204000002068
:100E1400FEE7000070B50D4D0D4C641BA4100026B8
:100E2400A64209D10B4D0C4C00F018F8641BA41019
:100E34000026A64205D170BD55F8043B98470136FB
:100E4400EEE755F8043B98470136F2E7880E0008B0
:100E5400880E0008880E00088C0E0008F8B500BF44
:100E6400F8BC08BC9E467047F8B500BFF8BC08BC87
:040E74009E467047DF
:100E7800550D0008710D00088D0D0008A90D00081A
:040E8800E901000874
:040E8C00C501000894
:100E900000050100000000000000022000FC01200D
:080EA00000F8012000F401201C
:0400000508000DC51D
:00000001FF
